{
  "_format": "hh-sol-artifact-1",
  "contractName": "DocumentRegistry",
  "sourceName": "contracts/DocumentRegistry.sol",
  "abi": [
    {
      "anonymous": false,
      "inputs": [
        {
          "indexed": true,
          "internalType": "bytes32",
          "name": "documentHash",
          "type": "bytes32"
        },
        {
          "indexed": false,
          "internalType": "string",
          "name": "documentName",
          "type": "string"
        },
        {
          "indexed": true,
          "internalType": "address",
          "name": "uploader",
          "type": "address"
        },
        {
          "indexed": false,
          "internalType": "uint256",
          "name": "timestamp",
          "type": "uint256"
        }
      ],
      "name": "DocumentRegistered",
      "type": "event"
    },
    {
      "anonymous": false,
      "inputs": [
        {
          "indexed": true,
          "internalType": "bytes32",
          "name": "documentHash",
          "type": "bytes32"
        },
        {
          "indexed": false,
          "internalType": "bool",
          "name": "isVerified",
          "type": "bool"
        },
        {
          "indexed": false,
          "internalType": "string",
          "name": "verificationStatus",
          "type": "string"
        },
        {
          "indexed": false,
          "internalType": "uint256",
          "name": "confidenceScore",
          "type": "uint256"
        },
        {
          "indexed": false,
          "internalType": "uint256",
          "name": "timestamp",
          "type": "uint256"
        }
      ],
      "name": "DocumentVerified",
      "type": "event"
    },
    {
      "anonymous": false,
      "inputs": [
        {
          "indexed": true,
          "internalType": "bytes32",
          "name": "documentHash",
          "type": "bytes32"
        },
        {
          "indexed": false,
          "internalType": "string",
          "name": "xaiAnalysis",
          "type": "string"
        },
        {
          "indexed": false,
          "internalType": "uint256",
          "name": "timestamp",
          "type": "uint256"
        }
      ],
      "name": "XAIAnalysisAdded",
      "type": "event"
    },
    {
      "inputs": [
        {
          "internalType": "bytes32",
          "name": "_documentHash",
          "type": "bytes32"
        },
        {
          "internalType": "string",
          "name": "_xaiAnalysis",
          "type": "string"
        }
      ],
      "name": "addXAIAnalysis",
      "outputs": [],
      "stateMutability": "nonpayable",
      "type": "function"
    },
    {
      "inputs": [
        {
          "internalType": "bytes32",
          "name": "_documentHash",
          "type": "bytes32"
        }
      ],
      "name": "documentExists",
      "outputs": [
        {
          "internalType": "bool",
          "name": "",
          "type": "bool"
        }
      ],
      "stateMutability": "view",
      "type": "function"
    },
    {
      "inputs": [
        {
          "internalType": "uint256",
          "name": "",
          "type": "uint256"
        }
      ],
      "name": "documentHashes",
      "outputs": [
        {
          "internalType": "bytes32",
          "name": "",
          "type": "bytes32"
        }
      ],
      "stateMutability": "view",
      "type": "function"
    },
    {
      "inputs": [
        {
          "internalType": "bytes32",
          "name": "",
          "type": "bytes32"
        }
      ],
      "name": "documents",
      "outputs": [
        {
          "internalType": "bytes32",
          "name": "documentHash",
          "type": "bytes32"
        },
        {
          "internalType": "string",
          "name": "documentName",
          "type": "string"
        },
        {
          "internalType": "address",
          "name": "uploader",
          "type": "address"
        },
        {
          "internalType": "uint256",
          "name": "timestamp",
          "type": "uint256"
        },
        {
          "internalType": "bool",
          "name": "isVerified",
          "type": "bool"
        },
        {
          "internalType": "string",
          "name": "xaiAnalysis",
          "type": "string"
        },
        {
          "internalType": "string",
          "name": "verificationStatus",
          "type": "string"
        },
        {
          "internalType": "uint256",
          "name": "confidenceScore",
          "type": "uint256"
        }
      ],
      "stateMutability": "view",
      "type": "function"
    },
    {
      "inputs": [
        {
          "internalType": "bytes32",
          "name": "_documentHash",
          "type": "bytes32"
        }
      ],
      "name": "getDocument",
      "outputs": [
        {
          "internalType": "bytes32",
          "name": "documentHash",
          "type": "bytes32"
        },
        {
          "internalType": "string",
          "name": "documentName",
          "type": "string"
        },
        {
          "internalType": "address",
          "name": "uploader",
          "type": "address"
        },
        {
          "internalType": "uint256",
          "name": "timestamp",
          "type": "uint256"
        },
        {
          "internalType": "bool",
          "name": "isVerified",
          "type": "bool"
        },
        {
          "internalType": "string",
          "name": "xaiAnalysis",
          "type": "string"
        },
        {
          "internalType": "string",
          "name": "verificationStatus",
          "type": "string"
        },
        {
          "internalType": "uint256",
          "name": "confidenceScore",
          "type": "uint256"
        }
      ],
      "stateMutability": "view",
      "type": "function"
    },
    {
      "inputs": [
        {
          "internalType": "uint256",
          "name": "_index",
          "type": "uint256"
        }
      ],
      "name": "getDocumentHashByIndex",
      "outputs": [
        {
          "internalType": "bytes32",
          "name": "",
          "type": "bytes32"
        }
      ],
      "stateMutability": "view",
      "type": "function"
    },
    {
      "inputs": [],
      "name": "getTotalDocuments",
      "outputs": [
        {
          "internalType": "uint256",
          "name": "",
          "type": "uint256"
        }
      ],
      "stateMutability": "view",
      "type": "function"
    },
    {
      "inputs": [
        {
          "internalType": "bytes32",
          "name": "_documentHash",
          "type": "bytes32"
        }
      ],
      "name": "getVerificationStatus",
      "outputs": [
        {
          "internalType": "bool",
          "name": "isVerified",
          "type": "bool"
        },
        {
          "internalType": "string",
          "name": "verificationStatus",
          "type": "string"
        },
        {
          "internalType": "uint256",
          "name": "confidenceScore",
          "type": "uint256"
        }
      ],
      "stateMutability": "view",
      "type": "function"
    },
    {
      "inputs": [
        {
          "internalType": "bytes32",
          "name": "_documentHash",
          "type": "bytes32"
        },
        {
          "internalType": "string",
          "name": "_documentName",
          "type": "string"
        }
      ],
      "name": "registerDocument",
      "outputs": [],
      "stateMutability": "nonpayable",
      "type": "function"
    },
    {
      "inputs": [
        {
          "internalType": "bytes32",
          "name": "_documentHash",
          "type": "bytes32"
        },
        {
          "internalType": "bool",
          "name": "_isVerified",
          "type": "bool"
        },
        {
          "internalType": "string",
          "name": "_verificationStatus",
          "type": "string"
        },
        {
          "internalType": "uint256",
          "name": "_confidenceScore",
          "type": "uint256"
        }
      ],
      "name": "verifyDocument",
      "outputs": [],
      "stateMutability": "nonpayable",
      "type": "function"
    }
  ],
  "bytecode": "0x608060405234801561001057600080fd5b5061126b806100206000396000f3fe608060405234801561001057600080fd5b506004361061009e5760003560e01c8063b10d6b4111610066578063b10d6b411461013e578063cbfe6d4114610151578063e90e7ad414610186578063ee57ed3c1461018e578063fa17185a146101a157600080fd5b80632b2805db146100a35780632b96797a146100d35780636346000b146100e85780638e383c6b1461010a5780639f788d101461012b575b600080fd5b6100b66100b1366004610e08565b6101b4565b6040516100ca989796959493929190610e67565b60405180910390f35b6100e66100e1366004610f80565b6103a0565b005b6100fb6100f6366004610e08565b610520565b6040516100ca93929190610fe6565b61011d610118366004610e08565b61078e565b6040519081526020016100ca565b61011d610139366004610e08565b6107af565b6100b661014c366004610e08565b61081e565b61017661015f366004610e08565b600090815260208190526040902060030154151590565b60405190151581526020016100ca565b60015461011d565b6100e661019c366004611011565b610ac1565b6100e66101af366004611011565b610b9c565b600060208190529081526040902080546001820180549192916101d690611058565b80601f016020809104026020016040519081016040528092919081815260200182805461020290611058565b801561024f5780601f106102245761010080835404028352916020019161024f565b820191906000526020600020905b81548152906001019060200180831161023257829003601f168201915b50505060028401546003850154600486015460058701805496976001600160a01b039094169692955060ff90911693509061028990611058565b80601f01602080910402602001604051908101604052809291908181526020018280546102b590611058565b80156103025780601f106102d757610100808354040283529160200191610302565b820191906000526020600020905b8154815290600101906020018083116102e557829003601f168201915b50505050509080600601805461031790611058565b80601f016020809104026020016040519081016040528092919081815260200182805461034390611058565b80156103905780601f1061036557610100808354040283529160200191610390565b820191906000526020600020905b81548152906001019060200180831161037357829003601f168201915b5050505050908060070154905088565b60008481526020819052604081206003015490036103d95760405162461bcd60e51b81526004016103d090611092565b60405180910390fd5b606481111561043d5760405162461bcd60e51b815260206004820152602a60248201527f436f6e666964656e63652073636f7265206d757374206265206265747765656e6044820152690203020616e64203130360b41b60648201526084016103d0565b600082511161049a5760405162461bcd60e51b815260206004820152602360248201527f566572696669636174696f6e207374617475732063616e6e6f7420626520656d60448201526270747960e81b60648201526084016103d0565b600084815260208190526040902060048101805460ff19168515151790556006016104c5838261110f565b50600084815260208190526040908190206007018290555184907fc2fea71811148caf1520e1582debcefcd4c99e518f77067acb734599d423354d906105129086908690869042906111cf565b60405180910390a250505050565b600081815260208190526040812060030154606090829081036105555760405162461bcd60e51b81526004016103d090611092565b6000806000868152602001908152602001600020604051806101000160405290816000820154815260200160018201805461058f90611058565b80601f01602080910402602001604051908101604052809291908181526020018280546105bb90611058565b80156106085780601f106105dd57610100808354040283529160200191610608565b820191906000526020600020905b8154815290600101906020018083116105eb57829003601f168201915b505050918352505060028201546001600160a01b0316602082015260038201546040820152600482015460ff161515606082015260058201805460809092019161065190611058565b80601f016020809104026020016040519081016040528092919081815260200182805461067d90611058565b80156106ca5780601f1061069f576101008083540402835291602001916106ca565b820191906000526020600020905b8154815290600101906020018083116106ad57829003601f168201915b505050505081526020016006820180546106e390611058565b80601f016020809104026020016040519081016040528092919081815260200182805461070f90611058565b801561075c5780601f106107315761010080835404028352916020019161075c565b820191906000526020600020905b81548152906001019060200180831161073f57829003601f168201915b50505050508152602001600782015481525050905080608001518160c001518260e00151935093509350509193909250565b6001818154811061079e57600080fd5b600091825260209091200154905081565b60015460009082106107f95760405162461bcd60e51b8152602060048201526013602482015272496e646578206f7574206f6620626f756e647360681b60448201526064016103d0565b6001828154811061080c5761080c6111fd565b90600052602060002001549050919050565b60006060600080600060608060008060008a8152602001908152602001600020600301546000036108615760405162461bcd60e51b81526004016103d090611092565b60008060008b8152602001908152602001600020604051806101000160405290816000820154815260200160018201805461089b90611058565b80601f01602080910402602001604051908101604052809291908181526020018280546108c790611058565b80156109145780601f106108e957610100808354040283529160200191610914565b820191906000526020600020905b8154815290600101906020018083116108f757829003601f168201915b505050918352505060028201546001600160a01b0316602082015260038201546040820152600482015460ff161515606082015260058201805460809092019161095d90611058565b80601f016020809104026020016040519081016040528092919081815260200182805461098990611058565b80156109d65780601f106109ab576101008083540402835291602001916109d6565b820191906000526020600020905b8154815290600101906020018083116109b957829003601f168201915b505050505081526020016006820180546109ef90611058565b80601f0160208091040260200160405190810160405280929190818152602001828054610a1b90611058565b8015610a685780601f10610a3d57610100808354040283529160200191610a68565b820191906000526020600020905b815481529060010190602001808311610a4b57829003601f168201915b505050505081526020016007820154815250509050806000015181602001518260400151836060015184608001518560a001518660c001518760e001519850985098509850985098509850985050919395975091939597565b6000828152602081905260408120600301549003610af15760405162461bcd60e51b81526004016103d090611092565b6000815111610b425760405162461bcd60e51b815260206004820152601c60248201527f58414920616e616c797369732063616e6e6f7420626520656d7074790000000060448201526064016103d0565b6000828152602081905260409020600501610b5d828261110f565b50817fc19a9c755e72c24df4cadca61165acd78068be9a6a3140924f1ded8ffc1fe98d8242604051610b90929190611213565b60405180910390a25050565b60008281526020819052604090206003015415610bfb5760405162461bcd60e51b815260206004820152601b60248201527f446f63756d656e7420616c72656164792072656769737465726564000000000060448201526064016103d0565b81610c405760405162461bcd60e51b8152602060048201526015602482015274092dcecc2d8d2c840c8dec6eadacadce840d0c2e6d605b1b60448201526064016103d0565b6000815111610c915760405162461bcd60e51b815260206004820152601d60248201527f446f63756d656e74206e616d652063616e6e6f7420626520656d70747900000060448201526064016103d0565b6040805161010081018252838152602080820184815233838501524260608401526000608084018190528451808401865281815260a085015284518086018652600781526670656e64696e6760c81b8185015260c085015260e08401819052868152918290529290208151815591519091906001820190610d12908261110f565b5060408201516002820180546001600160a01b0319166001600160a01b0390921691909117905560608201516003820155608082015160048201805460ff191691151591909117905560a08201516005820190610d6f908261110f565b5060c08201516006820190610d84908261110f565b5060e091909101516007909101556001805480820182556000919091527fb10e2d527612073b26eecdfd717e6a320cf44b4afac2b0732d9fcbe2b7fa0cf601829055604051339083907f4c9313acc7e3e657666e9ed0b3a9cad371a8b196293ff8df92e278eb16b5ab5690610dfc9085904290611213565b60405180910390a35050565b600060208284031215610e1a57600080fd5b5035919050565b6000815180845260005b81811015610e4757602081850181015186830182015201610e2b565b506000602082860101526020601f19601f83011685010191505092915050565b60006101008a8352806020840152610e818184018b610e21565b6001600160a01b038a16604085015260608401899052871515608085015283810360a08501529050610eb38187610e21565b905082810360c0840152610ec78186610e21565b9150508260e08301529998505050505050505050565b634e487b7160e01b600052604160045260246000fd5b600082601f830112610f0457600080fd5b813567ffffffffffffffff80821115610f1f57610f1f610edd565b604051601f8301601f19908116603f01168101908282118183101715610f4757610f47610edd565b81604052838152866020858801011115610f6057600080fd5b836020870160208301376000602085830101528094505050505092915050565b60008060008060808587031215610f9657600080fd5b8435935060208501358015158114610fad57600080fd5b9250604085013567ffffffffffffffff811115610fc957600080fd5b610fd587828801610ef3565b949793965093946060013593505050565b83151581526060602082015260006110016060830185610e21565b9050826040830152949350505050565b6000806040838503121561102457600080fd5b82359150602083013567ffffffffffffffff81111561104257600080fd5b61104e85828601610ef3565b9150509250929050565b600181811c9082168061106c57607f821691505b60208210810361108c57634e487b7160e01b600052602260045260246000fd5b50919050565b602080825260129082015271111bd8dd5b595b9d081b9bdd08199bdd5b9960721b604082015260600190565b601f82111561110a576000816000526020600020601f850160051c810160208610156110e75750805b601f850160051c820191505b81811015611106578281556001016110f3565b5050505b505050565b815167ffffffffffffffff81111561112957611129610edd565b61113d816111378454611058565b846110be565b602080601f831160018114611172576000841561115a5750858301515b600019600386901b1c1916600185901b178555611106565b600085815260208120601f198616915b828110156111a157888601518255948401946001909101908401611182565b50858210156111bf5787850151600019600388901b60f8161c191681555b5050505050600190811b01905550565b84151581526080602082015260006111ea6080830186610e21565b6040830194909452506060015292915050565b634e487b7160e01b600052603260045260246000fd5b6040815260006112266040830185610e21565b9050826020830152939250505056fea2646970667358221220f5342ed09be01e1e997cbfedf1d04fb8ac4eb30f235c403f5032c9ddbc1c6bf264736f6c63430008180033",
  "linkReferences": {},
  "deployedLinkReferences": {}
}